{
  "contractName": "KMEANS_MODEL",
  "abi": [
    {
      "constant": true,
      "inputs": [
        {
          "name": "",
          "type": "uint256"
        },
        {
          "name": "",
          "type": "uint256"
        }
      ],
      "name": "centroids",
      "outputs": [
        {
          "name": "",
          "type": "int256"
        }
      ],
      "payable": false,
      "stateMutability": "view",
      "type": "function"
    },
    {
      "constant": true,
      "inputs": [],
      "name": "vectorLength",
      "outputs": [
        {
          "name": "",
          "type": "uint256"
        }
      ],
      "payable": false,
      "stateMutability": "view",
      "type": "function"
    },
    {
      "constant": true,
      "inputs": [
        {
          "name": "",
          "type": "uint256"
        }
      ],
      "name": "centroid",
      "outputs": [
        {
          "name": "",
          "type": "int256"
        }
      ],
      "payable": false,
      "stateMutability": "view",
      "type": "function"
    },
    {
      "constant": true,
      "inputs": [
        {
          "name": "",
          "type": "address"
        }
      ],
      "name": "creditor",
      "outputs": [
        {
          "name": "",
          "type": "int256"
        }
      ],
      "payable": false,
      "stateMutability": "view",
      "type": "function"
    },
    {
      "constant": true,
      "inputs": [],
      "name": "owner",
      "outputs": [
        {
          "name": "",
          "type": "address"
        }
      ],
      "payable": false,
      "stateMutability": "view",
      "type": "function"
    },
    {
      "constant": true,
      "inputs": [],
      "name": "nCentroids",
      "outputs": [
        {
          "name": "",
          "type": "uint256"
        }
      ],
      "payable": false,
      "stateMutability": "view",
      "type": "function"
    },
    {
      "constant": true,
      "inputs": [],
      "name": "enigma",
      "outputs": [
        {
          "name": "",
          "type": "address"
        }
      ],
      "payable": false,
      "stateMutability": "view",
      "type": "function"
    },
    {
      "inputs": [
        {
          "name": "_enigmaAddress",
          "type": "address"
        },
        {
          "name": "_owner",
          "type": "address"
        }
      ],
      "payable": false,
      "stateMutability": "nonpayable",
      "type": "constructor"
    },
    {
      "anonymous": false,
      "inputs": [],
      "name": "CallbackFinished",
      "type": "event"
    },
    {
      "constant": false,
      "inputs": [
        {
          "name": "x",
          "type": "uint256"
        }
      ],
      "name": "sqrt",
      "outputs": [
        {
          "name": "y",
          "type": "uint256"
        }
      ],
      "payable": false,
      "stateMutability": "nonpayable",
      "type": "function"
    },
    {
      "constant": false,
      "inputs": [
        {
          "name": "_inputVector",
          "type": "int256[]"
        }
      ],
      "name": "predict",
      "outputs": [
        {
          "name": "centroid_id",
          "type": "uint256"
        }
      ],
      "payable": false,
      "stateMutability": "nonpayable",
      "type": "function"
    },
    {
      "constant": false,
      "inputs": [
        {
          "name": "classification",
          "type": "int256"
        }
      ],
      "name": "setClassification",
      "outputs": [],
      "payable": false,
      "stateMutability": "nonpayable",
      "type": "function"
    },
    {
      "constant": true,
      "inputs": [],
      "name": "getClassification",
      "outputs": [
        {
          "name": "",
          "type": "int256"
        }
      ],
      "payable": false,
      "stateMutability": "view",
      "type": "function"
    },
    {
      "constant": false,
      "inputs": [
        {
          "name": "_centroidArray",
          "type": "int256[]"
        },
        {
          "name": "_vectorLength",
          "type": "uint256"
        }
      ],
      "name": "setCentroid",
      "outputs": [],
      "payable": false,
      "stateMutability": "nonpayable",
      "type": "function"
    }
  ],
  "bytecode": "0x608060405234801561001057600080fd5b5060405160408061066383398101604052805160209091015160008054600160a060020a03928316600160a060020a031991821617909155600180549290931691161790556105ff806100646000396000f3006080604052600436106100b95763ffffffff7c01000000000000000000000000000000000000000000000000000000006000350416633a163fa981146100be578063677342ce146100eb578063685bdc551461010357806377956e301461011857806379e6a114146101305780637ab48cce146101855780638da5cb5b146101a657806392374f9c146101d7578063999c2190146102305780639dafc39914610245578063aff27bcd1461025d578063b24fd5c514610272575b600080fd5b3480156100ca57600080fd5b506100d9600435602435610287565b60408051918252519081900360200190f35b3480156100f757600080fd5b506100d96004356102c1565b34801561010f57600080fd5b506100d9610323565b34801561012457600080fd5b506100d9600435610329565b34801561013c57600080fd5b50604080516020600480358082013583810280860185019096528085526100d9953695939460249493850192918291850190849080828437509497506103489650505050505050565b34801561019157600080fd5b506100d9600160a060020a0360043516610451565b3480156101b257600080fd5b506101bb610463565b60408051600160a060020a039092168252519081900360200190f35b3480156101e357600080fd5b506040805160206004803580820135838102808601850190965280855261022e9536959394602494938501929182918501908490808284375094975050933594506104729350505050565b005b34801561023c57600080fd5b506100d9610543565b34801561025157600080fd5b5061022e600435610549565b34801561026957600080fd5b506100d96105a6565b34801561027e57600080fd5b506101bb6105c4565b600680548390811061029557fe5b90600052602060002001818154811015156102ac57fe5b90600052602060002001600091509150505481565b6000808215156102d4576000915061031d565b600383116102e5576001915061031d565b50819050600260018201045b8181101561031d57809150600281828581151561030a57fe5b040181151561031557fe5b0490506102f1565b50919050565b60045481565b600380548290811061033757fe5b600091825260209091200154905081565b600080808080805b6005548410156104475760009250600091505b60045482101561041357868281518110151561037b57fe5b9060200190602002015160068581548110151561039457fe5b90600052602060002001838154811015156103ab57fe5b90600052602060002001540387838151811015156103c557fe5b906020019060200201516006868154811015156103de57fe5b90600052602060002001848154811015156103f557fe5b90600052602060002001540302830192508180600101925050610363565b61041c836102c1565b905083151561042d5780945061043c565b8085111561043c578094508395505b600190930192610350565b5050505050919050565b60026020526000908152604090205481565b600054600160a060020a031681565b60015460009081908190600160a060020a0316331461049057600080fd5b83855181151561049c57fe5b06156104a757600080fd5b6004849055845184908115156104b957fe5b04600555600092508291505b60055482101561053c575060005b838110156105315784838151811015156104e957fe5b9060200190602002015160068381548110151561050257fe5b906000526020600020018281548110151561051957fe5b600091825260209091200155600192830192016104d3565b6001909101906104c5565b5050505050565b60055481565b600154600160a060020a0316331461056057600080fd5b600154600160a060020a0316600090815260026020526040808220839055517ffa6b2fa56bfe305041a2170756c9ee87984e5078d2533f89642c6ded5ff6a9029190a150565b600154600160a060020a031660009081526002602052604090205490565b600154600160a060020a0316815600a165627a7a7230582077ee260d30c0ae6daf993d2cd960754a9db8258ee892a072c8d734996b2ba0940029",
  "source": "pragma solidity 0.4.24;\n\ncontract KMEANS_MODEL {\n    address public owner;\n    address public enigma;\n\n    mapping(address => int) public creditor;\n\n    event CallbackFinished();\n\n    \t// Modifier to ensure only enigma contract can call function\n    \tmodifier onlyEnigma() {\n    \t\trequire(msg.sender == enigma);\n    \t\t_;\n    \t}\n\n\n    constructor(address _enigmaAddress, address _owner) public {\n      owner = _owner;\n      enigma = _enigmaAddress;\n    }\n    int[] public centroid;\n    uint public vectorLength;\n    uint public nCentroids;\n    int[][] public centroids;\n\n    function sqrt(uint x) returns (uint y) {\n      if (x == 0) return 0;\n      else if (x <= 3) return 1;\n      uint z = (x + 1) / 2;\n      y = x;\n      while (z < y)\n      {\n        y = z;\n        z = (x / z + z) / 2;\n      }\n    }\n    //Callable function for the sgx to run.\n    //Because we do not have access to floats decimal values should be padded\n    //by an amount specified by the sgx machine to increase accuracy.\n    function predict(int[] _inputVector) public returns (uint centroid_id) {\n      uint shortest_distance;\n      centroid_id = 0;\n      for(uint cid = 0; cid < nCentroids; cid ++) {\n        int sqr_distance = 0;\n        for (uint vid = 0; vid < vectorLength; vid++){\n          sqr_distance = sqr_distance + ((centroids[cid][vid]-_inputVector[vid])*(centroids[cid][vid]-_inputVector[vid]));\n        }\n        uint distance = sqrt(uint(sqr_distance));\n        if(cid == 0){\n          shortest_distance = distance;\n        }else{\n          if(shortest_distance > distance){\n            shortest_distance = distance;\n            centroid_id = cid;\n          }\n        }\n      }\n    }\n    function setClassification(int classification) public onlyEnigma() {\n      creditor[enigma] = classification;\n      emit CallbackFinished();\n    }\n    function getClassification() public view returns (int) {\n      return creditor[enigma];\n    }\n    //long array of integers number of centroids will be determined by how long\n    //the the vectorarray, vector length should always be divisible by\n    //the centroidArray length. Thus the centroidArray.length/vectorlength will\n    //be the number of centroids.\n    function setCentroid(int[] _centroidArray, uint _vectorLength) public onlyEnigma() {\n      //check to insure vectorLength and centroid array makes sense\n      require(_centroidArray.length % _vectorLength == 0);\n      vectorLength = _vectorLength;\n      nCentroids = _centroidArray.length / _vectorLength;\n      uint n = 0;\n      for(uint cid = 0; cid < nCentroids; cid ++){\n        for(uint i = 0; i < _vectorLength; i ++){\n          centroids[cid][i] = _centroidArray[n];\n          n = n + 1;\n        }\n      }\n\n    }\n\n\n}\n",
  "sourcePath": "/Users/Koji/Enigma-Dapp-Example/contracts/kmeans.sol",
  "compiler": {
    "name": "solc",
    "version": "0.4.24+commit.e67f0147.Emscripten.clang"
  },
  "schemaVersion": "2.0.0",
  "updatedAt": "2018-12-10T21:25:42.825Z"
}