{
  "contractName": "KMeansFactory",
  "abi": [
    {
      "constant": true,
      "inputs": [],
      "name": "enigmaAddress",
      "outputs": [
        {
          "name": "",
          "type": "address"
        }
      ],
      "payable": false,
      "stateMutability": "view",
      "type": "function",
      "signature": "0x44f97995"
    },
    {
      "constant": true,
      "inputs": [
        {
          "name": "",
          "type": "uint256"
        }
      ],
      "name": "kMeansModels",
      "outputs": [
        {
          "name": "",
          "type": "address"
        }
      ],
      "payable": false,
      "stateMutability": "view",
      "type": "function",
      "signature": "0xcc10db26"
    },
    {
      "inputs": [
        {
          "name": "_enigmaAddress",
          "type": "address"
        }
      ],
      "payable": false,
      "stateMutability": "nonpayable",
      "type": "constructor",
      "signature": "constructor"
    },
    {
      "constant": false,
      "inputs": [],
      "name": "createNewKmeansModel",
      "outputs": [],
      "payable": false,
      "stateMutability": "nonpayable",
      "type": "function",
      "signature": "0x29108fdf"
    },
    {
      "constant": true,
      "inputs": [],
      "name": "getKMeansModels",
      "outputs": [
        {
          "name": "",
          "type": "address[]"
        }
      ],
      "payable": false,
      "stateMutability": "view",
      "type": "function",
      "signature": "0xa0cde0ae"
    }
  ],
  "bytecode": "0x608060405234801561001057600080fd5b5060405160208061095e833981016040525160008054600160a060020a03909216600160a060020a031990921691909117905561090c806100526000396000f3006080604052600436106100615763ffffffff7c010000000000000000000000000000000000000000000000000000000060003504166329108fdf811461006657806344f979951461007d578063a0cde0ae146100ae578063cc10db2614610113575b600080fd5b34801561007257600080fd5b5061007b61012b565b005b34801561008957600080fd5b506100926101d4565b60408051600160a060020a039092168252519081900360200190f35b3480156100ba57600080fd5b506100c36101e3565b60408051602080825283518183015283519192839290830191858101910280838360005b838110156100ff5781810151838201526020016100e7565b505050509050019250505060405180910390f35b34801561011f57600080fd5b50610092600435610245565b60008054600160a060020a03163361014161026d565b600160a060020a03928316815291166020820152604080519182900301906000f080158015610174573d6000803e3d6000fd5b506001805480820182556000919091527fb10e2d527612073b26eecdfd717e6a320cf44b4afac2b0732d9fcbe2b7fa0cf601805473ffffffffffffffffffffffffffffffffffffffff1916600160a060020a039290921691909117905550565b600054600160a060020a031681565b6060600180548060200260200160405190810160405280929190818152602001828054801561023b57602002820191906000526020600020905b8154600160a060020a0316815260019091019060200180831161021d575b5050505050905090565b600180548290811061025357fe5b600091825260209091200154600160a060020a0316905081565b6040516106638061027e833901905600608060405234801561001057600080fd5b5060405160408061066383398101604052805160209091015160008054600160a060020a03928316600160a060020a031991821617909155600180549290931691161790556105ff806100646000396000f3006080604052600436106100b95763ffffffff7c01000000000000000000000000000000000000000000000000000000006000350416633a163fa981146100be578063677342ce146100eb578063685bdc551461010357806377956e301461011857806379e6a114146101305780637ab48cce146101855780638da5cb5b146101a657806392374f9c146101d7578063999c2190146102305780639dafc39914610245578063aff27bcd1461025d578063b24fd5c514610272575b600080fd5b3480156100ca57600080fd5b506100d9600435602435610287565b60408051918252519081900360200190f35b3480156100f757600080fd5b506100d96004356102c1565b34801561010f57600080fd5b506100d9610323565b34801561012457600080fd5b506100d9600435610329565b34801561013c57600080fd5b50604080516020600480358082013583810280860185019096528085526100d9953695939460249493850192918291850190849080828437509497506103489650505050505050565b34801561019157600080fd5b506100d9600160a060020a0360043516610451565b3480156101b257600080fd5b506101bb610463565b60408051600160a060020a039092168252519081900360200190f35b3480156101e357600080fd5b506040805160206004803580820135838102808601850190965280855261022e9536959394602494938501929182918501908490808284375094975050933594506104729350505050565b005b34801561023c57600080fd5b506100d9610543565b34801561025157600080fd5b5061022e600435610549565b34801561026957600080fd5b506100d96105a6565b34801561027e57600080fd5b506101bb6105c4565b600680548390811061029557fe5b90600052602060002001818154811015156102ac57fe5b90600052602060002001600091509150505481565b6000808215156102d4576000915061031d565b600383116102e5576001915061031d565b50819050600260018201045b8181101561031d57809150600281828581151561030a57fe5b040181151561031557fe5b0490506102f1565b50919050565b60045481565b600380548290811061033757fe5b600091825260209091200154905081565b600080808080805b6005548410156104475760009250600091505b60045482101561041357868281518110151561037b57fe5b9060200190602002015160068581548110151561039457fe5b90600052602060002001838154811015156103ab57fe5b90600052602060002001540387838151811015156103c557fe5b906020019060200201516006868154811015156103de57fe5b90600052602060002001848154811015156103f557fe5b90600052602060002001540302830192508180600101925050610363565b61041c836102c1565b905083151561042d5780945061043c565b8085111561043c578094508395505b600190930192610350565b5050505050919050565b60026020526000908152604090205481565b600054600160a060020a031681565b60015460009081908190600160a060020a0316331461049057600080fd5b83855181151561049c57fe5b06156104a757600080fd5b6004849055845184908115156104b957fe5b04600555600092508291505b60055482101561053c575060005b838110156105315784838151811015156104e957fe5b9060200190602002015160068381548110151561050257fe5b906000526020600020018281548110151561051957fe5b600091825260209091200155600192830192016104d3565b6001909101906104c5565b5050505050565b60055481565b600154600160a060020a0316331461056057600080fd5b600154600160a060020a0316600090815260026020526040808220839055517ffa6b2fa56bfe305041a2170756c9ee87984e5078d2533f89642c6ded5ff6a9029190a150565b600154600160a060020a031660009081526002602052604090205490565b600154600160a060020a0316815600a165627a7a72305820b328e2223303c100b61cf1ab77d64e22009f4288191266fe04407779b9afe4bb0029a165627a7a72305820314058329b5903652e3c052b86a21ed57e73a1c7a580eea6f1422cf7e85b9c5d0029",
  "source": "pragma solidity ^0.4.20;\nimport \"./KMeans.sol\";\n\ncontract KMeansFactory {\n  address public enigmaAddress;\n  // List of addresses for deployed KmeansModel instances\n  address[] public kMeansModels;\n\n  constructor(address _enigmaAddress) public {\n    enigmaAddress = _enigmaAddress;\n  }\n\n  // Create a new Kmeansmodel and store the address to an array\n  function createNewKmeansModel() public {\n    address newKMeansModel = new KMeans(\n        enigmaAddress,\n        msg.sender\n      );\n      kMeansModels.push(newKMeansModel);\n  }\n\n  //Obtain list of all deployed KmeansModels instances\n  function getKMeansModels() public view returns(address[]) {\n    return kMeansModels;\n  }\n}\n",
  "sourcePath": "/Users/Koji/Enigma-Dapp-Example/contracts/KMeansFactory.sol",
  "compiler": {
    "name": "solc",
    "version": "0.4.24+commit.e67f0147.Emscripten.clang"
  },
  "schemaVersion": "2.0.0",
  "updatedAt": "2018-12-12T20:37:07.891Z"
}